{
  "contractName": "Ballot",
  "abi": [
    {
      "inputs": [],
      "stateMutability": "nonpayable",
      "type": "constructor"
    },
    {
      "inputs": [],
      "name": "chairperson",
      "outputs": [
        {
          "internalType": "address",
          "name": "",
          "type": "address"
        }
      ],
      "stateMutability": "view",
      "type": "function"
    },
    {
      "inputs": [
        {
          "internalType": "uint256",
          "name": "",
          "type": "uint256"
        }
      ],
      "name": "proposals",
      "outputs": [
        {
          "internalType": "uint256",
          "name": "",
          "type": "uint256"
        }
      ],
      "stateMutability": "view",
      "type": "function"
    },
    {
      "inputs": [
        {
          "internalType": "address",
          "name": "",
          "type": "address"
        }
      ],
      "name": "voters",
      "outputs": [
        {
          "internalType": "uint256",
          "name": "weight",
          "type": "uint256"
        },
        {
          "internalType": "bool",
          "name": "voted",
          "type": "bool"
        },
        {
          "internalType": "uint8",
          "name": "vote",
          "type": "uint8"
        }
      ],
      "stateMutability": "view",
      "type": "function"
    },
    {
      "inputs": [
        {
          "internalType": "address",
          "name": "toVoter",
          "type": "address"
        }
      ],
      "name": "register",
      "outputs": [],
      "stateMutability": "nonpayable",
      "type": "function"
    },
    {
      "inputs": [
        {
          "internalType": "uint8",
          "name": "toProposal",
          "type": "uint8"
        }
      ],
      "name": "vote",
      "outputs": [],
      "stateMutability": "nonpayable",
      "type": "function"
    },
    {
      "inputs": [],
      "name": "winningProposal",
      "outputs": [
        {
          "internalType": "uint8",
          "name": "_winningProposal",
          "type": "uint8"
        }
      ],
      "stateMutability": "view",
      "type": "function"
    }
  ],
  "bytecode": "0x608060405234801561001057600080fd5b50336000806101000a81548173ffffffffffffffffffffffffffffffffffffffff021916908373ffffffffffffffffffffffffffffffffffffffff1602179055506002600160008060009054906101000a900473ffffffffffffffffffffffffffffffffffffffff1673ffffffffffffffffffffffffffffffffffffffff1673ffffffffffffffffffffffffffffffffffffffff168152602001908152602001600020600001819055506107a3806100c96000396000f3fe608060405234801561001057600080fd5b50600436106100625760003560e01c8063013cf08b146100675780632e4176cf146100975780634420e486146100b5578063609ff1bd146100d1578063a3ec138d146100ef578063b3f98adc14610121575b600080fd5b610081600480360381019061007c91906104a2565b61013d565b60405161008e91906104de565b60405180910390f35b61009f610158565b6040516100ac919061053a565b60405180910390f35b6100cf60048036038101906100ca9190610581565b61017c565b005b6100d96102c8565b6040516100e691906105ca565b60405180910390f35b61010960048036038101906101049190610581565b610335565b60405161011893929190610600565b60405180910390f35b61013b60048036038101906101369190610663565b610379565b005b6002816004811061014d57600080fd5b016000915090505481565b60008054906101000a900473ffffffffffffffffffffffffffffffffffffffff1681565b60008054906101000a900473ffffffffffffffffffffffffffffffffffffffff1673ffffffffffffffffffffffffffffffffffffffff163373ffffffffffffffffffffffffffffffffffffffff16146101d457600080fd5b6000600160008373ffffffffffffffffffffffffffffffffffffffff1673ffffffffffffffffffffffffffffffffffffffff168152602001908152602001600020600001541461022357600080fd5b60018060008373ffffffffffffffffffffffffffffffffffffffff1673ffffffffffffffffffffffffffffffffffffffff168152602001908152602001600020600001819055506000600160008373ffffffffffffffffffffffffffffffffffffffff1673ffffffffffffffffffffffffffffffffffffffff16815260200190815260200160002060010160006101000a81548160ff02191690831515021790555050565b6000806000905060005b60048160ff161015610330578160028260ff16600481106102f6576102f5610690565b5b0154111561031d5760028160ff166004811061031557610314610690565b5b015491508092505b8080610328906106ee565b9150506102d2565b505090565b60016020528060005260406000206000915090508060000154908060010160009054906101000a900460ff16908060010160019054906101000a900460ff16905083565b6000600160003373ffffffffffffffffffffffffffffffffffffffff1673ffffffffffffffffffffffffffffffffffffffff16815260200190815260200160002090508060010160009054906101000a900460ff16806103dd575060048260ff1610155b806103ec575060008160000154145b156103f657600080fd5b60018160010160006101000a81548160ff021916908315150217905550818160010160016101000a81548160ff021916908360ff160217905550806000015460028360ff166004811061044c5761044b610690565b5b01600082825461045c9190610717565b925050819055505050565b600080fd5b6000819050919050565b61047f8161046c565b811461048a57600080fd5b50565b60008135905061049c81610476565b92915050565b6000602082840312156104b8576104b7610467565b5b60006104c68482850161048d565b91505092915050565b6104d88161046c565b82525050565b60006020820190506104f360008301846104cf565b92915050565b600073ffffffffffffffffffffffffffffffffffffffff82169050919050565b6000610524826104f9565b9050919050565b61053481610519565b82525050565b600060208201905061054f600083018461052b565b92915050565b61055e81610519565b811461056957600080fd5b50565b60008135905061057b81610555565b92915050565b60006020828403121561059757610596610467565b5b60006105a58482850161056c565b91505092915050565b600060ff82169050919050565b6105c4816105ae565b82525050565b60006020820190506105df60008301846105bb565b92915050565b60008115159050919050565b6105fa816105e5565b82525050565b600060608201905061061560008301866104cf565b61062260208301856105f1565b61062f60408301846105bb565b949350505050565b610640816105ae565b811461064b57600080fd5b50565b60008135905061065d81610637565b92915050565b60006020828403121561067957610678610467565b5b60006106878482850161064e565b91505092915050565b7f4e487b7100000000000000000000000000000000000000000000000000000000600052603260045260246000fd5b7f4e487b7100000000000000000000000000000000000000000000000000000000600052601160045260246000fd5b60006106f9826105ae565b915060ff820361070c5761070b6106bf565b5b600182019050919050565b60006107228261046c565b915061072d8361046c565b9250827fffffffffffffffffffffffffffffffffffffffffffffffffffffffffffffffff03821115610762576107616106bf565b5b82820190509291505056fea2646970667358221220a9cb7a4c71d821a03ff76bf806c7ae8f5111f6925f962c07e127cdeeb14c08b964736f6c634300080e0033",
  "immutableReferences": {},
  "source": "pragma solidity ^0.8.14;\n\ncontract Ballot {\n\n    struct Voter {\n        uint weight;\n        bool voted;\n        uint8 vote;\n        // address delegate;\n    }\n\n    //modifer\n    modifier onlyOwner () {\n      require(msg.sender == chairperson);\n      _;\n    }\n\n    /* struct Proposal {\n        uint voteCount; // could add other data about proposal\n    } */\n    address public chairperson;\n    mapping(address => Voter) public voters;\n    uint[4] public proposals;\n\n    // Create a new ballot with 4 different proposals.\n    constructor() {\n        chairperson = msg.sender;\n        voters[chairperson].weight = 2;\n    }\n\n    /// Give $(toVoter) the right to vote on this ballot.\n    /// May only be called by $(chairperson).\n    function register(address toVoter) public onlyOwner{\n        if(voters[toVoter].weight != 0) revert();\n        voters[toVoter].weight = 1;\n        voters[toVoter].voted = false;\n    }\n\n    /// Give a single vote to proposal $(toProposal).\n    function vote(uint8 toProposal) public {\n        Voter storage sender = voters[msg.sender];\n        if (sender.voted || toProposal >= 4 || sender.weight == 0) revert();\n        sender.voted = true;\n        sender.vote = toProposal;\n        proposals[toProposal] += sender.weight;\n    }\n\n    /// constant (version update) -> view(to use smart contract's inner variables) / pure(handles only given parameters)\n    function winningProposal() public view returns (uint8 _winningProposal) {\n        uint256 winningVoteCount = 0;\n        for (uint8 prop = 0; prop < 4; prop++)\n            if (proposals[prop] > winningVoteCount) {\n                winningVoteCount = proposals[prop];\n                _winningProposal = prop;\n            }\n    }\n}",
  "sourcePath": "/Users/sun/TIL/Blockchain/Blockchain-Specialization/truffle/Ballot1/contracts/Ballot.sol",
  "compiler": {
    "name": "solc",
    "version": "0.8.14+commit.80d49f37.Emscripten.clang"
  },
  "schemaVersion": "3.4.7",
  "updatedAt": "2022-06-17T08:13:01.704Z",
  "devdoc": {
    "kind": "dev",
    "methods": {},
    "version": 1
  },
  "userdoc": {
    "kind": "user",
    "methods": {
      "register(address)": {
        "notice": "Give $(toVoter) the right to vote on this ballot. May only be called by $(chairperson)."
      },
      "vote(uint8)": {
        "notice": "Give a single vote to proposal $(toProposal)."
      },
      "winningProposal()": {
        "notice": "constant (version update) -> view(to use smart contract's inner variables) / pure(handles only given parameters)"
      }
    },
    "version": 1
  }
}