{
  "contractName": "Ballot",
  "abi": [
    {
      "inputs": [],
      "stateMutability": "nonpayable",
      "type": "constructor"
    },
    {
      "inputs": [],
      "name": "chairperson",
      "outputs": [
        {
          "internalType": "address",
          "name": "",
          "type": "address"
        }
      ],
      "stateMutability": "view",
      "type": "function"
    },
    {
      "inputs": [
        {
          "internalType": "uint256",
          "name": "",
          "type": "uint256"
        }
      ],
      "name": "proposals",
      "outputs": [
        {
          "internalType": "uint256",
          "name": "",
          "type": "uint256"
        }
      ],
      "stateMutability": "view",
      "type": "function"
    },
    {
      "inputs": [
        {
          "internalType": "address",
          "name": "",
          "type": "address"
        }
      ],
      "name": "voters",
      "outputs": [
        {
          "internalType": "uint256",
          "name": "weight",
          "type": "uint256"
        },
        {
          "internalType": "bool",
          "name": "voted",
          "type": "bool"
        },
        {
          "internalType": "uint8",
          "name": "vote",
          "type": "uint8"
        }
      ],
      "stateMutability": "view",
      "type": "function"
    },
    {
      "inputs": [
        {
          "internalType": "address",
          "name": "toVoter",
          "type": "address"
        }
      ],
      "name": "register",
      "outputs": [],
      "stateMutability": "nonpayable",
      "type": "function"
    },
    {
      "inputs": [
        {
          "internalType": "uint8",
          "name": "toProposal",
          "type": "uint8"
        }
      ],
      "name": "vote",
      "outputs": [],
      "stateMutability": "nonpayable",
      "type": "function"
    },
    {
      "inputs": [],
      "name": "winningProposal",
      "outputs": [
        {
          "internalType": "uint8",
          "name": "_winningProposal",
          "type": "uint8"
        }
      ],
      "stateMutability": "view",
      "type": "function"
    }
  ],
  "bytecode": "0x608060405234801561001057600080fd5b50336000806101000a81548173ffffffffffffffffffffffffffffffffffffffff021916908373ffffffffffffffffffffffffffffffffffffffff1602179055506002600160008060009054906101000a900473ffffffffffffffffffffffffffffffffffffffff1673ffffffffffffffffffffffffffffffffffffffff1673ffffffffffffffffffffffffffffffffffffffff1681526020019081526020016000206000018190555061074b806100c96000396000f3fe608060405234801561001057600080fd5b50600436106100625760003560e01c8063013cf08b146100675780632e4176cf146100975780634420e486146100b5578063609ff1bd146100d1578063a3ec138d146100ef578063b3f98adc14610121575b600080fd5b610081600480360381019061007c919061044a565b61013d565b60405161008e9190610486565b60405180910390f35b61009f610158565b6040516100ac91906104e2565b60405180910390f35b6100cf60048036038101906100ca9190610529565b61017c565b005b6100d9610270565b6040516100e69190610572565b60405180910390f35b61010960048036038101906101049190610529565b6102dd565b604051610118939291906105a8565b60405180910390f35b61013b6004803603810190610136919061060b565b610321565b005b6002816004811061014d57600080fd5b016000915090505481565b60008054906101000a900473ffffffffffffffffffffffffffffffffffffffff1681565b6000600160008373ffffffffffffffffffffffffffffffffffffffff1673ffffffffffffffffffffffffffffffffffffffff16815260200190815260200160002060000154146101cb57600080fd5b60018060008373ffffffffffffffffffffffffffffffffffffffff1673ffffffffffffffffffffffffffffffffffffffff168152602001908152602001600020600001819055506000600160008373ffffffffffffffffffffffffffffffffffffffff1673ffffffffffffffffffffffffffffffffffffffff16815260200190815260200160002060010160006101000a81548160ff02191690831515021790555050565b6000806000905060005b60048160ff1610156102d8578160028260ff166004811061029e5761029d610638565b5b015411156102c55760028160ff16600481106102bd576102bc610638565b5b015491508092505b80806102d090610696565b91505061027a565b505090565b60016020528060005260406000206000915090508060000154908060010160009054906101000a900460ff16908060010160019054906101000a900460ff16905083565b6000600160003373ffffffffffffffffffffffffffffffffffffffff1673ffffffffffffffffffffffffffffffffffffffff16815260200190815260200160002090508060010160009054906101000a900460ff1680610385575060048260ff1610155b80610394575060008160000154145b1561039e57600080fd5b60018160010160006101000a81548160ff021916908315150217905550818160010160016101000a81548160ff021916908360ff160217905550806000015460028360ff16600481106103f4576103f3610638565b5b01600082825461040491906106bf565b925050819055505050565b600080fd5b6000819050919050565b61042781610414565b811461043257600080fd5b50565b6000813590506104448161041e565b92915050565b6000602082840312156104605761045f61040f565b5b600061046e84828501610435565b91505092915050565b61048081610414565b82525050565b600060208201905061049b6000830184610477565b92915050565b600073ffffffffffffffffffffffffffffffffffffffff82169050919050565b60006104cc826104a1565b9050919050565b6104dc816104c1565b82525050565b60006020820190506104f760008301846104d3565b92915050565b610506816104c1565b811461051157600080fd5b50565b600081359050610523816104fd565b92915050565b60006020828403121561053f5761053e61040f565b5b600061054d84828501610514565b91505092915050565b600060ff82169050919050565b61056c81610556565b82525050565b60006020820190506105876000830184610563565b92915050565b60008115159050919050565b6105a28161058d565b82525050565b60006060820190506105bd6000830186610477565b6105ca6020830185610599565b6105d76040830184610563565b949350505050565b6105e881610556565b81146105f357600080fd5b50565b600081359050610605816105df565b92915050565b6000602082840312156106215761062061040f565b5b600061062f848285016105f6565b91505092915050565b7f4e487b7100000000000000000000000000000000000000000000000000000000600052603260045260246000fd5b7f4e487b7100000000000000000000000000000000000000000000000000000000600052601160045260246000fd5b60006106a182610556565b915060ff82036106b4576106b3610667565b5b600182019050919050565b60006106ca82610414565b91506106d583610414565b9250827fffffffffffffffffffffffffffffffffffffffffffffffffffffffffffffffff0382111561070a57610709610667565b5b82820190509291505056fea26469706673582212205025498dad1803c6b7cccd64b6f149d2a3d5c54894added9ba0a7048e93e45ba64736f6c634300080e0033",
  "immutableReferences": {},
  "source": "pragma solidity ^0.8.14;\r\n\r\ncontract Ballot {\r\n\r\n    struct Voter {\r\n        uint weight;\r\n        bool voted;\r\n        uint8 vote;\r\n        // address delegate;\r\n    }\r\n\r\n    //modifer\r\n    // modifier onlyOwner () {\r\n    //   require(msg.sender == chairperson);\r\n    //   _;\r\n    // }\r\n\r\n    /* struct Proposal {\r\n        uint voteCount; // could add other data about proposal\r\n    } */\r\n    address public chairperson;\r\n    mapping(address => Voter) public voters;\r\n    uint[4] public proposals;\r\n\r\n    // Create a new ballot with 4 different proposals.\r\n    constructor() {\r\n        chairperson = msg.sender;\r\n        voters[chairperson].weight = 2;\r\n    }\r\n\r\n    /// Give $(toVoter) the right to vote on this ballot.\r\n    /// May only be called by $(chairperson).\r\n    function register(address toVoter) public { //onlyOwner{\r\n        if(voters[toVoter].weight != 0) revert();\r\n        voters[toVoter].weight = 1;\r\n        voters[toVoter].voted = false;\r\n    }\r\n\r\n    /// Give a single vote to proposal $(toProposal).\r\n    function vote(uint8 toProposal) public {\r\n        Voter storage sender = voters[msg.sender];\r\n        if (sender.voted || toProposal >= 4 || sender.weight == 0) revert();\r\n        sender.voted = true;\r\n        sender.vote = toProposal;\r\n        proposals[toProposal] += sender.weight;\r\n    }\r\n\r\n    /// constant (version update) -> view(to use smart contract's inner variables) / pure(handles only given parameters)\r\n    function winningProposal() public view returns (uint8 _winningProposal) {\r\n        uint256 winningVoteCount = 0;\r\n        for (uint8 prop = 0; prop < 4; prop++)\r\n            if (proposals[prop] > winningVoteCount) {\r\n                winningVoteCount = proposals[prop];\r\n                _winningProposal = prop;\r\n            }\r\n    }\r\n}",
  "sourcePath": "C:\\Users\\pomat\\TIL\\Blockchain\\Blockchain-Specialization\\truffle\\Ballot1\\contracts\\Ballot.sol",
  "compiler": {
    "name": "solc",
    "version": "0.8.14+commit.80d49f37.Emscripten.clang"
  },
  "schemaVersion": "3.4.7",
  "updatedAt": "2022-06-16T15:02:53.964Z",
  "devdoc": {
    "kind": "dev",
    "methods": {},
    "version": 1
  },
  "userdoc": {
    "kind": "user",
    "methods": {
      "register(address)": {
        "notice": "Give $(toVoter) the right to vote on this ballot. May only be called by $(chairperson)."
      },
      "vote(uint8)": {
        "notice": "Give a single vote to proposal $(toProposal)."
      },
      "winningProposal()": {
        "notice": "constant (version update) -> view(to use smart contract's inner variables) / pure(handles only given parameters)"
      }
    },
    "version": 1
  }
}